:100000000C942A000C9447000C9447000C94470071
:100010000C9447000C9447000C9447000C94470044
:100020000C9447000C9447000C9447000C94470034
:100030000C9447000C9447000C9447000C94470024
:100040000C9447000C9447000C9447000C94470014
:100050000C94470011241FBECFE5D8E0DEBFCDBF12
:1000600010E0A0E6B0E0ECE6F2E002C005900D92F0
:10007000AA36B107D9F710E0AAE6B0E001C01D9298
:10008000AB36B107E1F70E9449000C9434010C949F
:100090000000DF93CF93CDB7DEB72F970FB6F8945C
:1000A000DEBF0FBECDBFCE0101969C878B87E0E6F9
:1000B000F0E0FE87ED87FAE0FF87ED85FE850080A2
:1000C0008D859E8501969E878D87EB85FC850082B8
:1000D0008B859C8501969C878B879F8591509F87F8
:1000E000EF85EE2351F7EAE3F0E01082E4E3F0E07D
:1000F0008FEF8083EBE3F0E08FEF8083E5E3F0E0C8
:10010000108230C0E5E3F0E089818083E9E3F0E02C
:100110008081882F90E081709070009779F48091B1
:100120006A008F5F80936A00E9E3F0E08081882FA6
:1001300090E0817090700097B9F314C0E9E3F0E0AB
:1001400080818695882F90E081709070009751F49F
:10015000E9E3F0E080818695882F90E081709070CF
:100160000097B1F380916A00882361F23EC0E9E311
:10017000F0E08081882F90E081709070009779F492
:1001800080916A008F5F80936A00E9E3F0E08081EC
:10019000882F90E0817090700097B9F319C0E9E35F
:1001A000F0E080818695882F90E0817090700097B4
:1001B00079F480916A00815080936A00E9E3F0E06D
:1001C00080818695882F90E0817090700097B1F3C0
:1001D000A5E3B0E080916A00282F30E0CE010196BF
:1001E000FC01E20FF31F80818C9380916A008823C9
:1001F000B1F180916A00893008F4B9CF30C0E5E3ED
:10020000F0E08A858083E9E3F0E08081882F90E048
:1002100081709070009751F4E9E3F0E08081882FBD
:1002200090E0817090700097B9F319C0E9E3F0E0B5
:1002300080818695882F90E081709070009779F486
:1002400080916A00815080936A00E9E3F0E0808148
:100250008695882F90E0817090700097B1F380911F
:0C0260006A00893060F67ECFF894FFCF72
:0A026C003F065B4F666D7D077F6F54
:00000001FF
