:100000000C942A000C9434000C9434000C943400AA
:100010000C9434000C9434000C9434000C94340090
:100020000C9434000C9434000C9434000C94340080
:100030000C9434000C9434000C9434000C94340070
:100040000C9434000C9434000C9434000C94340060
:100050000C94340011241FBECFE5D8E0DEBFCDBF25
:100060000E9436000C94B6000C940000DF93CF93EE
:1000700000D00F92CDB7DEB7E6E3F0E0808181706B
:100080008B83E6E3F0E08081869581708A83E6E3E6
:10009000F0E080818695869581708983E7E3F0E0C2
:1000A0001082E8E3F0E08FEF8083EAE3F0E08FEF87
:1000B0008083EBE3F0E01082E6E3F0E08081882FBC
:1000C00090E081709070009741F4ABE3B0E0EBE317
:1000D000F0E0808181608C9307C0ABE3B0E0EBE39C
:1000E000F0E080818E7F8C93E6E3F0E0808186955E
:1000F000882F90E081709070009741F4ABE3B0E0FE
:10010000EBE3F0E0808182608C9307C0ABE3B0E06A
:10011000EBE3F0E080818D7F8C93E6E3F0E080817B
:1001200086958695882F90E081709070009779F47D
:10013000ABE3B0E0EBE3F0E0808181608C93ABE374
:10014000B0E0EBE3F0E0808182608C93B5CFABE36D
:10015000B0E0EBE3F0E080818E7F8C93ABE3B0E026
:10016000EBE3F0E080818E7F8C93A6CFF894FFCFF5
:00000001FF
